{
  "contractName": "Contract",
  "abi": [
    {
      "anonymous": false,
      "inputs": [
        {
          "indexed": false,
          "internalType": "bytes32",
          "name": "id",
          "type": "bytes32"
        },
        {
          "indexed": false,
          "internalType": "string",
          "name": "serialNumber",
          "type": "string"
        },
        {
          "indexed": false,
          "internalType": "string",
          "name": "brand",
          "type": "string"
        },
        {
          "indexed": false,
          "internalType": "string",
          "name": "model",
          "type": "string"
        },
        {
          "indexed": false,
          "internalType": "string",
          "name": "color",
          "type": "string"
        },
        {
          "indexed": false,
          "internalType": "string",
          "name": "pairNNumber",
          "type": "string"
        },
        {
          "indexed": false,
          "internalType": "string",
          "name": "owner",
          "type": "string"
        },
        {
          "indexed": false,
          "internalType": "string",
          "name": "price",
          "type": "string"
        },
        {
          "indexed": false,
          "internalType": "string",
          "name": "location",
          "type": "string"
        },
        {
          "indexed": false,
          "internalType": "uint256",
          "name": "creationDate",
          "type": "uint256"
        }
      ],
      "name": "ContractCreated",
      "type": "event"
    },
    {
      "anonymous": false,
      "inputs": [
        {
          "indexed": false,
          "internalType": "bytes32",
          "name": "message",
          "type": "bytes32"
        }
      ],
      "name": "Log",
      "type": "event"
    },
    {
      "inputs": [
        {
          "internalType": "string",
          "name": "",
          "type": "string"
        }
      ],
      "name": "conts",
      "outputs": [
        {
          "internalType": "bytes32",
          "name": "id",
          "type": "bytes32"
        },
        {
          "internalType": "string",
          "name": "serialNumber",
          "type": "string"
        },
        {
          "internalType": "string",
          "name": "brand",
          "type": "string"
        },
        {
          "internalType": "string",
          "name": "model",
          "type": "string"
        },
        {
          "internalType": "string",
          "name": "color",
          "type": "string"
        },
        {
          "internalType": "string",
          "name": "pairNumber",
          "type": "string"
        },
        {
          "internalType": "string",
          "name": "owner",
          "type": "string"
        },
        {
          "internalType": "string",
          "name": "price",
          "type": "string"
        },
        {
          "internalType": "string",
          "name": "location",
          "type": "string"
        },
        {
          "internalType": "uint256",
          "name": "creartionDate",
          "type": "uint256"
        }
      ],
      "stateMutability": "view",
      "type": "function",
      "constant": true
    },
    {
      "inputs": [],
      "name": "counter",
      "outputs": [
        {
          "internalType": "uint256",
          "name": "",
          "type": "uint256"
        }
      ],
      "stateMutability": "view",
      "type": "function",
      "constant": true
    },
    {
      "inputs": [
        {
          "internalType": "bytes32",
          "name": "",
          "type": "bytes32"
        }
      ],
      "name": "hashToValue",
      "outputs": [
        {
          "internalType": "string",
          "name": "",
          "type": "string"
        }
      ],
      "stateMutability": "view",
      "type": "function",
      "constant": true
    },
    {
      "inputs": [
        {
          "internalType": "bytes32",
          "name": "hash",
          "type": "bytes32"
        },
        {
          "internalType": "string",
          "name": "value",
          "type": "string"
        }
      ],
      "name": "storeHashValue",
      "outputs": [],
      "stateMutability": "nonpayable",
      "type": "function"
    },
    {
      "inputs": [
        {
          "internalType": "bytes32",
          "name": "hash",
          "type": "bytes32"
        }
      ],
      "name": "getValueHash",
      "outputs": [
        {
          "internalType": "string",
          "name": "",
          "type": "string"
        }
      ],
      "stateMutability": "view",
      "type": "function",
      "constant": true
    },
    {
      "inputs": [
        {
          "internalType": "string",
          "name": "a",
          "type": "string"
        },
        {
          "internalType": "string",
          "name": "b",
          "type": "string"
        },
        {
          "internalType": "string",
          "name": "c",
          "type": "string"
        },
        {
          "internalType": "string",
          "name": "d",
          "type": "string"
        },
        {
          "internalType": "string",
          "name": "e",
          "type": "string"
        },
        {
          "internalType": "string",
          "name": "f",
          "type": "string"
        },
        {
          "internalType": "string",
          "name": "g",
          "type": "string"
        }
      ],
      "name": "concatenateStrings",
      "outputs": [
        {
          "internalType": "string",
          "name": "",
          "type": "string"
        }
      ],
      "stateMutability": "pure",
      "type": "function",
      "constant": true
    },
    {
      "inputs": [
        {
          "internalType": "string",
          "name": "data",
          "type": "string"
        }
      ],
      "name": "hashData",
      "outputs": [
        {
          "internalType": "bytes32",
          "name": "",
          "type": "bytes32"
        }
      ],
      "stateMutability": "pure",
      "type": "function",
      "constant": true
    },
    {
      "inputs": [
        {
          "internalType": "string",
          "name": "_serialNumber",
          "type": "string"
        },
        {
          "internalType": "string",
          "name": "_brand",
          "type": "string"
        },
        {
          "internalType": "string",
          "name": "_model",
          "type": "string"
        },
        {
          "internalType": "string",
          "name": "_color",
          "type": "string"
        },
        {
          "internalType": "string",
          "name": "_pairNumber",
          "type": "string"
        },
        {
          "internalType": "string",
          "name": "_owner",
          "type": "string"
        },
        {
          "internalType": "string",
          "name": "_price",
          "type": "string"
        },
        {
          "internalType": "string",
          "name": "_location",
          "type": "string"
        }
      ],
      "name": "create",
      "outputs": [],
      "stateMutability": "nonpayable",
      "type": "function"
    },
    {
      "inputs": [
        {
          "internalType": "bytes32",
          "name": "_id",
          "type": "bytes32"
        },
        {
          "internalType": "string",
          "name": "_newLocation",
          "type": "string"
        }
      ],
      "name": "changeLocation",
      "outputs": [],
      "stateMutability": "nonpayable",
      "type": "function"
    },
    {
      "inputs": [
        {
          "internalType": "bytes32",
          "name": "_id",
          "type": "bytes32"
        },
        {
          "internalType": "string",
          "name": "_newOwner",
          "type": "string"
        }
      ],
      "name": "changeOwner",
      "outputs": [],
      "stateMutability": "nonpayable",
      "type": "function"
    },
    {
      "inputs": [
        {
          "internalType": "bytes32",
          "name": "_id",
          "type": "bytes32"
        },
        {
          "internalType": "string",
          "name": "_newPrice",
          "type": "string"
        }
      ],
      "name": "changePrice",
      "outputs": [],
      "stateMutability": "nonpayable",
      "type": "function"
    }
  ],
  "bytecode": "0x60806040526000805534801561001457600080fd5b50611e21806100246000396000f3fe608060405234801561001057600080fd5b50600436106100c6576000357c0100000000000000000000000000000000000000000000000000000000900480639b2706ad1161008e5780639b2706ad14610195578063c11145d6146101c5578063cef3ec6f146101e1578063e7730444146101fd578063eb3bf88e14610236578063f286bc9214610252576100c6565b806304b7dcde146100cb5780634d10c0b5146100fb57806361bc221a1461011757806377d35fe914610135578063959bdb1f14610165575b600080fd5b6100e560048036038101906100e09190611549565b61026e565b6040516100f2919061192d565b60405180910390f35b610115600480360381019061011091906116f8565b61029e565b005b61011f6104a7565b60405161012c9190611a3e565b60405180910390f35b61014f600480360381019061014a9190611592565b6104ad565b60405161015c9190611a1c565b60405180910390f35b61017f600480360381019061017a91906114c0565b610b25565b60405161018c9190611a1c565b60405180910390f35b6101af60048036038101906101aa91906114c0565b610bc5565b6040516101bc9190611a1c565b60405180910390f35b6101df60048036038101906101da91906114ed565b610c6a565b005b6101fb60048036038101906101f691906114ed565b610cb2565b005b61021760048036038101906102129190611549565b610cfa565b60405161022d9a99989796959493929190611948565b60405180910390f35b610250600480360381019061024b91906114ed565b6111a4565b005b61026c600480360381019061026791906114ed565b6111ec565b005b6000816040516020016102819190611916565b604051602081830303815290604052805190602001209050919050565b60006102a942611218565b905060006102bc8a8a8a8a8a88886104ad565b905060006102c98261026e565b90506102d581836111ec565b6040518061014001604052808281526020018c81526020018b81526020018a81526020018981526020018881526020018781526020018681526020018581526020014281525060018360405161032b9190611916565b908152602001604051809103902060008201518160000155602082015181600101908051906020019061035f929190611398565b50604082015181600201908051906020019061037c929190611398565b506060820151816003019080519060200190610399929190611398565b5060808201518160040190805190602001906103b6929190611398565b5060a08201518160050190805190602001906103d3929190611398565b5060c08201518160060190805190602001906103f0929190611398565b5060e082015181600701908051906020019061040d929190611398565b5061010082015181600801908051906020019061042b929190611398565b5061012082015181600901559050507fc180306cae39747c9bc0868415f328416c4aec14ddfa105bac3a5f61280e4a92818c8c8c8c8c8c8c8c4260405161047b9a99989796959493929190611948565b60405180910390a160008081548092919061049590611c4a565b91905055505050505050505050505050565b60005481565b606060008890506000889050600088905060008890506000889050600088905060008890506000815183518551875189518b518d516104ec9190611ad6565b6104f69190611ad6565b6105009190611ad6565b61050a9190611ad6565b6105149190611ad6565b61051e9190611ad6565b67ffffffffffffffff81111561053757610536611d80565b5b6040519080825280601f01601f1916602001820160405280156105695781602001600182028036833780820191505090505b50905060008190506000805b8a5181101561063e578a818151811061059157610590611d51565b5b60200101517f010000000000000000000000000000000000000000000000000000000000000090047f0100000000000000000000000000000000000000000000000000000000000000028383815181106105ee576105ed611d51565b5b60200101907effffffffffffffffffffffffffffffffffffffffffffffffffffffffffffff1916908160001a905350818061062890611c4a565b925050808061063690611c4a565b915050610575565b5060005b895181101561070b5789818151811061065e5761065d611d51565b5b60200101517f010000000000000000000000000000000000000000000000000000000000000090047f0100000000000000000000000000000000000000000000000000000000000000028383815181106106bb576106ba611d51565b5b60200101907effffffffffffffffffffffffffffffffffffffffffffffffffffffffffffff1916908160001a90535081806106f590611c4a565b925050808061070390611c4a565b915050610642565b5060005b88518110156107d85788818151811061072b5761072a611d51565b5b60200101517f010000000000000000000000000000000000000000000000000000000000000090047f01000000000000000000000000000000000000000000000000000000000000000283838151811061078857610787611d51565b5b60200101907effffffffffffffffffffffffffffffffffffffffffffffffffffffffffffff1916908160001a90535081806107c290611c4a565b92505080806107d090611c4a565b91505061070f565b5060005b87518110156108a5578781815181106107f8576107f7611d51565b5b60200101517f010000000000000000000000000000000000000000000000000000000000000090047f01000000000000000000000000000000000000000000000000000000000000000283838151811061085557610854611d51565b5b60200101907effffffffffffffffffffffffffffffffffffffffffffffffffffffffffffff1916908160001a905350818061088f90611c4a565b925050808061089d90611c4a565b9150506107dc565b5060005b8651811015610972578681815181106108c5576108c4611d51565b5b60200101517f010000000000000000000000000000000000000000000000000000000000000090047f01000000000000000000000000000000000000000000000000000000000000000283838151811061092257610921611d51565b5b60200101907effffffffffffffffffffffffffffffffffffffffffffffffffffffffffffff1916908160001a905350818061095c90611c4a565b925050808061096a90611c4a565b9150506108a9565b5060005b8551811015610a3f5785818151811061099257610991611d51565b5b60200101517f010000000000000000000000000000000000000000000000000000000000000090047f0100000000000000000000000000000000000000000000000000000000000000028383815181106109ef576109ee611d51565b5b60200101907effffffffffffffffffffffffffffffffffffffffffffffffffffffffffffff1916908160001a9053508180610a2990611c4a565b9250508080610a3790611c4a565b915050610976565b5060005b8451811015610b0c57848181518110610a5f57610a5e611d51565b5b60200101517f010000000000000000000000000000000000000000000000000000000000000090047f010000000000000000000000000000000000000000000000000000000000000002838381518110610abc57610abb611d51565b5b60200101907effffffffffffffffffffffffffffffffffffffffffffffffffffffffffffff1916908160001a9053508180610af690611c4a565b9250508080610b0490611c4a565b915050610a43565b50819a5050505050505050505050979650505050505050565b60026020528060005260406000206000915090508054610b4490611be7565b80601f0160208091040260200160405190810160405280929190818152602001828054610b7090611be7565b8015610bbd5780601f10610b9257610100808354040283529160200191610bbd565b820191906000526020600020905b815481529060010190602001808311610ba057829003601f168201915b505050505081565b6060600260008381526020019081526020016000208054610be590611be7565b80601f0160208091040260200160405190810160405280929190818152602001828054610c1190611be7565b8015610c5e5780601f10610c3357610100808354040283529160200191610c5e565b820191906000526020600020905b815481529060010190602001808311610c4157829003601f168201915b50505050509050919050565b6000610c7583610bc5565b905081600182604051610c889190611916565b90815260200160405180910390206007019080519060200190610cac929190611398565b50505050565b6000610cbd83610bc5565b905081600182604051610cd09190611916565b90815260200160405180910390206006019080519060200190610cf4929190611398565b50505050565b600181805160208101820180518482526020830160208501208183528095505050505050600091509050806000015490806001018054610d3990611be7565b80601f0160208091040260200160405190810160405280929190818152602001828054610d6590611be7565b8015610db25780601f10610d8757610100808354040283529160200191610db2565b820191906000526020600020905b815481529060010190602001808311610d9557829003601f168201915b505050505090806002018054610dc790611be7565b80601f0160208091040260200160405190810160405280929190818152602001828054610df390611be7565b8015610e405780601f10610e1557610100808354040283529160200191610e40565b820191906000526020600020905b815481529060010190602001808311610e2357829003601f168201915b505050505090806003018054610e5590611be7565b80601f0160208091040260200160405190810160405280929190818152602001828054610e8190611be7565b8015610ece5780601f10610ea357610100808354040283529160200191610ece565b820191906000526020600020905b815481529060010190602001808311610eb157829003601f168201915b505050505090806004018054610ee390611be7565b80601f0160208091040260200160405190810160405280929190818152602001828054610f0f90611be7565b8015610f5c5780601f10610f3157610100808354040283529160200191610f5c565b820191906000526020600020905b815481529060010190602001808311610f3f57829003601f168201915b505050505090806005018054610f7190611be7565b80601f0160208091040260200160405190810160405280929190818152602001828054610f9d90611be7565b8015610fea5780601f10610fbf57610100808354040283529160200191610fea565b820191906000526020600020905b815481529060010190602001808311610fcd57829003601f168201915b505050505090806006018054610fff90611be7565b80601f016020809104026020016040519081016040528092919081815260200182805461102b90611be7565b80156110785780601f1061104d57610100808354040283529160200191611078565b820191906000526020600020905b81548152906001019060200180831161105b57829003601f168201915b50505050509080600701805461108d90611be7565b80601f01602080910402602001604051908101604052809291908181526020018280546110b990611be7565b80156111065780601f106110db57610100808354040283529160200191611106565b820191906000526020600020905b8154815290600101906020018083116110e957829003601f168201915b50505050509080600801805461111b90611be7565b80601f016020809104026020016040519081016040528092919081815260200182805461114790611be7565b80156111945780601f1061116957610100808354040283529160200191611194565b820191906000526020600020905b81548152906001019060200180831161117757829003601f168201915b505050505090806009015490508a565b60006111af83610bc5565b9050816001826040516111c29190611916565b908152602001604051809103902060080190805190602001906111e6929190611398565b50505050565b80600260008481526020019081526020016000209080519060200190611213929190611398565b505050565b60606000821415611260576040518060400160405280600181526020017f30000000000000000000000000000000000000000000000000000000000000008152509050611393565b600082905060005b6000821461129257808061127b90611c4a565b915050600a8261128b9190611b2c565b9150611268565b60008167ffffffffffffffff8111156112ae576112ad611d80565b5b6040519080825280601f01601f1916602001820160405280156112e05781602001600182028036833780820191505090505b5090505b6000851461138c576001826112f99190611b5d565b9150600a856113089190611c93565b60306113149190611ad6565b7f01000000000000000000000000000000000000000000000000000000000000000281838151811061134957611348611d51565b5b60200101907effffffffffffffffffffffffffffffffffffffffffffffffffffffffffffff1916908160001a905350600a856113859190611b2c565b94506112e4565b8093505050505b919050565b8280546113a490611be7565b90600052602060002090601f0160209004810192826113c6576000855561140d565b82601f106113df57805160ff191683800117855561140d565b8280016001018555821561140d579182015b8281111561140c5782518255916020019190600101906113f1565b5b50905061141a919061141e565b5090565b5b8082111561143757600081600090555060010161141f565b5090565b600061144e61144984611a7e565b611a59565b90508281526020810184848401111561146a57611469611db4565b5b611475848285611ba5565b509392505050565b60008135905061148c81611dd4565b92915050565b600082601f8301126114a7576114a6611daf565b5b81356114b784826020860161143b565b91505092915050565b6000602082840312156114d6576114d5611dbe565b5b60006114e48482850161147d565b91505092915050565b6000806040838503121561150457611503611dbe565b5b60006115128582860161147d565b925050602083013567ffffffffffffffff81111561153357611532611db9565b5b61153f85828601611492565b9150509250929050565b60006020828403121561155f5761155e611dbe565b5b600082013567ffffffffffffffff81111561157d5761157c611db9565b5b61158984828501611492565b91505092915050565b600080600080600080600060e0888a0312156115b1576115b0611dbe565b5b600088013567ffffffffffffffff8111156115cf576115ce611db9565b5b6115db8a828b01611492565b975050602088013567ffffffffffffffff8111156115fc576115fb611db9565b5b6116088a828b01611492565b965050604088013567ffffffffffffffff81111561162957611628611db9565b5b6116358a828b01611492565b955050606088013567ffffffffffffffff81111561165657611655611db9565b5b6116628a828b01611492565b945050608088013567ffffffffffffffff81111561168357611682611db9565b5b61168f8a828b01611492565b93505060a088013567ffffffffffffffff8111156116b0576116af611db9565b5b6116bc8a828b01611492565b92505060c088013567ffffffffffffffff8111156116dd576116dc611db9565b5b6116e98a828b01611492565b91505092959891949750929550565b600080600080600080600080610100898b03121561171957611718611dbe565b5b600089013567ffffffffffffffff81111561173757611736611db9565b5b6117438b828c01611492565b985050602089013567ffffffffffffffff81111561176457611763611db9565b5b6117708b828c01611492565b975050604089013567ffffffffffffffff81111561179157611790611db9565b5b61179d8b828c01611492565b965050606089013567ffffffffffffffff8111156117be576117bd611db9565b5b6117ca8b828c01611492565b955050608089013567ffffffffffffffff8111156117eb576117ea611db9565b5b6117f78b828c01611492565b94505060a089013567ffffffffffffffff81111561181857611817611db9565b5b6118248b828c01611492565b93505060c089013567ffffffffffffffff81111561184557611844611db9565b5b6118518b828c01611492565b92505060e089013567ffffffffffffffff81111561187257611871611db9565b5b61187e8b828c01611492565b9150509295985092959890939650565b61189781611b91565b82525050565b60006118a882611aaf565b6118b28185611aba565b93506118c2818560208601611bb4565b6118cb81611dc3565b840191505092915050565b60006118e182611aaf565b6118eb8185611acb565b93506118fb818560208601611bb4565b80840191505092915050565b61191081611b9b565b82525050565b600061192282846118d6565b915081905092915050565b6000602082019050611942600083018461188e565b92915050565b60006101408201905061195e600083018d61188e565b8181036020830152611970818c61189d565b90508181036040830152611984818b61189d565b90508181036060830152611998818a61189d565b905081810360808301526119ac818961189d565b905081810360a08301526119c0818861189d565b905081810360c08301526119d4818761189d565b905081810360e08301526119e8818661189d565b90508181036101008301526119fd818561189d565b9050611a0d610120830184611907565b9b9a5050505050505050505050565b60006020820190508181036000830152611a36818461189d565b905092915050565b6000602082019050611a536000830184611907565b92915050565b6000611a63611a74565b9050611a6f8282611c19565b919050565b6000604051905090565b600067ffffffffffffffff821115611a9957611a98611d80565b5b611aa282611dc3565b9050602081019050919050565b600081519050919050565b600082825260208201905092915050565b600081905092915050565b6000611ae182611b9b565b9150611aec83611b9b565b9250827fffffffffffffffffffffffffffffffffffffffffffffffffffffffffffffffff03821115611b2157611b20611cc4565b5b828201905092915050565b6000611b3782611b9b565b9150611b4283611b9b565b925082611b5257611b51611cf3565b5b828204905092915050565b6000611b6882611b9b565b9150611b7383611b9b565b925082821015611b8657611b85611cc4565b5b828203905092915050565b6000819050919050565b6000819050919050565b82818337600083830152505050565b60005b83811015611bd2578082015181840152602081019050611bb7565b83811115611be1576000848401525b50505050565b60006002820490506001821680611bff57607f821691505b60208210811415611c1357611c12611d22565b5b50919050565b611c2282611dc3565b810181811067ffffffffffffffff82111715611c4157611c40611d80565b5b80604052505050565b6000611c5582611b9b565b91507fffffffffffffffffffffffffffffffffffffffffffffffffffffffffffffffff821415611c8857611c87611cc4565b5b600182019050919050565b6000611c9e82611b9b565b9150611ca983611b9b565b925082611cb957611cb8611cf3565b5b828206905092915050565b7f4e487b7100000000000000000000000000000000000000000000000000000000600052601160045260246000fd5b7f4e487b7100000000000000000000000000000000000000000000000000000000600052601260045260246000fd5b7f4e487b7100000000000000000000000000000000000000000000000000000000600052602260045260246000fd5b7f4e487b7100000000000000000000000000000000000000000000000000000000600052603260045260246000fd5b7f4e487b7100000000000000000000000000000000000000000000000000000000600052604160045260246000fd5b600080fd5b600080fd5b600080fd5b600080fd5b6000601f19601f8301169050919050565b611ddd81611b91565b8114611de857600080fd5b5056fea2646970667358221220757b0079120425c4fad39dd09c397db1dd961ca1bc8524d9ea468f384c49657a64736f6c63430008060033",
  "immutableReferences": {},
  "source": "// SPDX-License-Identifier: MIT\r\npragma solidity ^0.8.6;\r\n\r\ncontract Contract{\r\n\r\n    uint public counter = 0;\r\n\r\n    event ContractCreated (\r\n        bytes32 id,\r\n        string serialNumber,\r\n        string brand,\r\n        string model,\r\n        string color,\r\n        string pairNNumber,\r\n        string owner,\r\n        string price,\r\n        string location,\r\n        uint creationDate\r\n    );\r\n\r\n    event Log(bytes32 message);\r\n\r\n    struct Cont{\r\n        bytes32 id; //crated with attributes\r\n        string serialNumber; // not changable\r\n        string brand; // not changable\r\n        string model; // not changable\r\n        string color; // not changable\r\n        string pairNumber; //not changable\r\n        string owner; // changable\r\n        string price; // changable\r\n        string location; // not changable\r\n        uint creartionDate; // not changable\r\n    }\r\n\r\n\r\n\r\n\r\n    mapping (string => Cont) public conts;\r\n\r\n    mapping(bytes32 => string) public hashToValue;\r\n\r\n    function storeHashValue(bytes32 hash, string memory value) public {\r\n        hashToValue[hash] = value;\r\n    }\r\n\r\n    function getValueHash(bytes32 hash) public view returns (string memory) {\r\n        return hashToValue[hash];\r\n    }\r\n\r\n    function uint256ToString(uint256 value) internal pure returns (string memory) {\r\n        if (value == 0) {\r\n            return \"0\";\r\n        }\r\n        \r\n        uint256 tempValue = value;\r\n        uint256 digits;\r\n        \r\n        while (tempValue != 0) {\r\n            digits++;\r\n            tempValue /= 10;\r\n        }\r\n        \r\n        bytes memory buffer = new bytes(digits);\r\n        \r\n        while (value != 0) {\r\n            digits = digits - 1;\r\n            buffer[digits] = bytes1(uint8(48 + uint256(value % 10)));\r\n            value /= 10;\r\n        }\r\n        \r\n        return string(buffer);\r\n    }\r\n\r\n    function concatenateStrings(string memory a, string memory b, string memory c, string memory d, string memory e, string memory f, \r\n                                string memory g) public pure returns (string memory) {\r\n        bytes memory aa = bytes(a);\r\n        bytes memory bb = bytes(b);\r\n        bytes memory cc = bytes(c);\r\n        bytes memory dd = bytes(d);\r\n        bytes memory ee = bytes(e);\r\n        bytes memory ff = bytes(f);\r\n        bytes memory gg = bytes(g);\r\n\r\n        string memory concatenatedString = new string(aa.length + bb.length + cc.length + dd.length + ee.length + ff.length + gg.length);\r\n        bytes memory concatenatedBytes = bytes(concatenatedString);\r\n\r\n        uint k = 0;\r\n        for (uint i = 0; i < aa.length; i++) {\r\n            concatenatedBytes[k] = aa[i];\r\n            k++;\r\n        }\r\n\r\n        for (uint i = 0; i < bb.length; i++) {\r\n            concatenatedBytes[k] = bb[i];\r\n            k++;\r\n        }\r\n        for (uint i = 0; i < cc.length; i++) {\r\n            concatenatedBytes[k] = cc[i];\r\n            k++;\r\n        }\r\n        for (uint i = 0; i < dd.length; i++) {\r\n            concatenatedBytes[k] = dd[i];\r\n            k++;\r\n        }\r\n        for (uint i = 0; i < ee.length; i++) {\r\n            concatenatedBytes[k] = ee[i];\r\n            k++;\r\n        }\r\n        for (uint i = 0; i < ff.length; i++) {\r\n            concatenatedBytes[k] = ff[i];\r\n            k++;\r\n        }\r\n        for (uint i = 0; i < gg.length; i++) {\r\n            concatenatedBytes[k] = gg[i];\r\n            k++;\r\n        }\r\n        \r\n\r\n        return string(concatenatedBytes);\r\n    }\r\n\r\n    function hashData(string memory data) public pure returns(bytes32) {\r\n        return keccak256(abi.encodePacked(data));\r\n    }\r\n    \r\n    function create(string memory _serialNumber, string memory _brand, string memory _model, string memory _color,\r\n                    string memory _pairNumber, string memory _owner, string memory _price, string memory _location) public {\r\n                        \r\n                        string memory date = uint256ToString(block.timestamp);\r\n                        string memory fid = concatenateStrings(_serialNumber, _brand, _model, _color, _pairNumber, _location, date);\r\n                        bytes32 ID  = hashData(fid);\r\n\r\n                        storeHashValue(ID, fid);\r\n\r\n                        conts[fid] = Cont(ID, _serialNumber, _brand, _model, _color, _pairNumber, _owner, _price, _location, \r\n                                              block.timestamp);\r\n                        emit ContractCreated(ID, _serialNumber, _brand, _model, _color, _pairNumber, _owner, _price, _location, block.timestamp);\r\n                        counter++;\r\n                    }\r\n    \r\n    function changeLocation(bytes32 _id, string memory _newLocation) public { \r\n        string memory val = getValueHash(_id);\r\n        conts[val].location = _newLocation;\r\n    }\r\n\r\n    function changeOwner (bytes32 _id, string memory _newOwner) public {\r\n        string memory val = getValueHash(_id);\r\n        conts[val].owner = _newOwner;\r\n    }\r\n    \r\n    function changePrice (bytes32 _id, string memory _newPrice) public {\r\n        string memory val = getValueHash(_id);\r\n        conts[val].price = _newPrice;\r\n    }\r\n}",
  "sourcePath": "C:\\Users\\Abraham\\Desktop\\zencon\\contracts\\Contracts.sol",
  "compiler": {
    "name": "solc",
    "version": "0.8.6+commit.11564f7e.Emscripten.clang"
  },
  "schemaVersion": "3.4.16",
  "updatedAt": "2023-09-20T07:36:57.881Z",
  "networkType": "ethereum",
  "devdoc": {
    "kind": "dev",
    "methods": {},
    "version": 1
  },
  "userdoc": {
    "kind": "user",
    "methods": {},
    "version": 1
  }
}