{
  "contractName": "NFTContract",
  "abi": [
    {
      "inputs": [
        {
          "internalType": "string",
          "name": "_name",
          "type": "string"
        },
        {
          "internalType": "string",
          "name": "_symbol",
          "type": "string"
        },
        {
          "internalType": "string",
          "name": "baseTokenURI",
          "type": "string"
        },
        {
          "internalType": "uint256",
          "name": "_price",
          "type": "uint256"
        }
      ],
      "stateMutability": "nonpayable",
      "type": "constructor"
    },
    {
      "anonymous": false,
      "inputs": [
        {
          "indexed": true,
          "internalType": "address",
          "name": "owner",
          "type": "address"
        },
        {
          "indexed": true,
          "internalType": "address",
          "name": "approved",
          "type": "address"
        },
        {
          "indexed": true,
          "internalType": "uint256",
          "name": "tokenId",
          "type": "uint256"
        }
      ],
      "name": "Approval",
      "type": "event"
    },
    {
      "anonymous": false,
      "inputs": [
        {
          "indexed": true,
          "internalType": "address",
          "name": "owner",
          "type": "address"
        },
        {
          "indexed": true,
          "internalType": "address",
          "name": "operator",
          "type": "address"
        },
        {
          "indexed": false,
          "internalType": "bool",
          "name": "approved",
          "type": "bool"
        }
      ],
      "name": "ApprovalForAll",
      "type": "event"
    },
    {
      "anonymous": false,
      "inputs": [
        {
          "indexed": true,
          "internalType": "address",
          "name": "previousOwner",
          "type": "address"
        },
        {
          "indexed": true,
          "internalType": "address",
          "name": "newOwner",
          "type": "address"
        }
      ],
      "name": "OwnershipTransferred",
      "type": "event"
    },
    {
      "anonymous": false,
      "inputs": [
        {
          "indexed": true,
          "internalType": "address",
          "name": "from",
          "type": "address"
        },
        {
          "indexed": true,
          "internalType": "address",
          "name": "to",
          "type": "address"
        },
        {
          "indexed": true,
          "internalType": "uint256",
          "name": "tokenId",
          "type": "uint256"
        }
      ],
      "name": "Transfer",
      "type": "event"
    },
    {
      "inputs": [
        {
          "internalType": "address",
          "name": "to",
          "type": "address"
        },
        {
          "internalType": "uint256",
          "name": "tokenId",
          "type": "uint256"
        }
      ],
      "name": "approve",
      "outputs": [],
      "stateMutability": "nonpayable",
      "type": "function"
    },
    {
      "inputs": [
        {
          "internalType": "address",
          "name": "owner",
          "type": "address"
        }
      ],
      "name": "balanceOf",
      "outputs": [
        {
          "internalType": "uint256",
          "name": "",
          "type": "uint256"
        }
      ],
      "stateMutability": "view",
      "type": "function"
    },
    {
      "inputs": [
        {
          "internalType": "uint256",
          "name": "tokenId",
          "type": "uint256"
        }
      ],
      "name": "getApproved",
      "outputs": [
        {
          "internalType": "address",
          "name": "",
          "type": "address"
        }
      ],
      "stateMutability": "view",
      "type": "function"
    },
    {
      "inputs": [
        {
          "internalType": "address",
          "name": "owner",
          "type": "address"
        },
        {
          "internalType": "address",
          "name": "operator",
          "type": "address"
        }
      ],
      "name": "isApprovedForAll",
      "outputs": [
        {
          "internalType": "bool",
          "name": "",
          "type": "bool"
        }
      ],
      "stateMutability": "view",
      "type": "function"
    },
    {
      "inputs": [],
      "name": "name",
      "outputs": [
        {
          "internalType": "string",
          "name": "",
          "type": "string"
        }
      ],
      "stateMutability": "view",
      "type": "function"
    },
    {
      "inputs": [],
      "name": "owner",
      "outputs": [
        {
          "internalType": "address",
          "name": "",
          "type": "address"
        }
      ],
      "stateMutability": "view",
      "type": "function"
    },
    {
      "inputs": [
        {
          "internalType": "uint256",
          "name": "tokenId",
          "type": "uint256"
        }
      ],
      "name": "ownerOf",
      "outputs": [
        {
          "internalType": "address",
          "name": "",
          "type": "address"
        }
      ],
      "stateMutability": "view",
      "type": "function"
    },
    {
      "inputs": [],
      "name": "price",
      "outputs": [
        {
          "internalType": "uint256",
          "name": "",
          "type": "uint256"
        }
      ],
      "stateMutability": "view",
      "type": "function"
    },
    {
      "inputs": [],
      "name": "renounceOwnership",
      "outputs": [],
      "stateMutability": "nonpayable",
      "type": "function"
    },
    {
      "inputs": [
        {
          "internalType": "address",
          "name": "from",
          "type": "address"
        },
        {
          "internalType": "address",
          "name": "to",
          "type": "address"
        },
        {
          "internalType": "uint256",
          "name": "tokenId",
          "type": "uint256"
        }
      ],
      "name": "safeTransferFrom",
      "outputs": [],
      "stateMutability": "nonpayable",
      "type": "function"
    },
    {
      "inputs": [
        {
          "internalType": "address",
          "name": "from",
          "type": "address"
        },
        {
          "internalType": "address",
          "name": "to",
          "type": "address"
        },
        {
          "internalType": "uint256",
          "name": "tokenId",
          "type": "uint256"
        },
        {
          "internalType": "bytes",
          "name": "data",
          "type": "bytes"
        }
      ],
      "name": "safeTransferFrom",
      "outputs": [],
      "stateMutability": "nonpayable",
      "type": "function"
    },
    {
      "inputs": [
        {
          "internalType": "address",
          "name": "operator",
          "type": "address"
        },
        {
          "internalType": "bool",
          "name": "approved",
          "type": "bool"
        }
      ],
      "name": "setApprovalForAll",
      "outputs": [],
      "stateMutability": "nonpayable",
      "type": "function"
    },
    {
      "inputs": [
        {
          "internalType": "bytes4",
          "name": "interfaceId",
          "type": "bytes4"
        }
      ],
      "name": "supportsInterface",
      "outputs": [
        {
          "internalType": "bool",
          "name": "",
          "type": "bool"
        }
      ],
      "stateMutability": "view",
      "type": "function"
    },
    {
      "inputs": [],
      "name": "symbol",
      "outputs": [
        {
          "internalType": "string",
          "name": "",
          "type": "string"
        }
      ],
      "stateMutability": "view",
      "type": "function"
    },
    {
      "inputs": [
        {
          "internalType": "uint256",
          "name": "index",
          "type": "uint256"
        }
      ],
      "name": "tokenByIndex",
      "outputs": [
        {
          "internalType": "uint256",
          "name": "",
          "type": "uint256"
        }
      ],
      "stateMutability": "view",
      "type": "function"
    },
    {
      "inputs": [
        {
          "internalType": "address",
          "name": "owner",
          "type": "address"
        },
        {
          "internalType": "uint256",
          "name": "index",
          "type": "uint256"
        }
      ],
      "name": "tokenOfOwnerByIndex",
      "outputs": [
        {
          "internalType": "uint256",
          "name": "",
          "type": "uint256"
        }
      ],
      "stateMutability": "view",
      "type": "function"
    },
    {
      "inputs": [
        {
          "internalType": "uint256",
          "name": "tokenId",
          "type": "uint256"
        }
      ],
      "name": "tokenURI",
      "outputs": [
        {
          "internalType": "string",
          "name": "",
          "type": "string"
        }
      ],
      "stateMutability": "view",
      "type": "function"
    },
    {
      "inputs": [],
      "name": "totalSupply",
      "outputs": [
        {
          "internalType": "uint256",
          "name": "",
          "type": "uint256"
        }
      ],
      "stateMutability": "view",
      "type": "function"
    },
    {
      "inputs": [
        {
          "internalType": "address",
          "name": "from",
          "type": "address"
        },
        {
          "internalType": "address",
          "name": "to",
          "type": "address"
        },
        {
          "internalType": "uint256",
          "name": "tokenId",
          "type": "uint256"
        }
      ],
      "name": "transferFrom",
      "outputs": [],
      "stateMutability": "nonpayable",
      "type": "function"
    },
    {
      "inputs": [
        {
          "internalType": "address",
          "name": "newOwner",
          "type": "address"
        }
      ],
      "name": "transferOwnership",
      "outputs": [],
      "stateMutability": "nonpayable",
      "type": "function"
    },
    {
      "inputs": [
        {
          "internalType": "string",
          "name": "baseTokenURI",
          "type": "string"
        }
      ],
      "name": "setBaseURI",
      "outputs": [],
      "stateMutability": "nonpayable",
      "type": "function"
    },
    {
      "inputs": [
        {
          "internalType": "uint256",
          "name": "_price",
          "type": "uint256"
        }
      ],
      "name": "setPrice",
      "outputs": [],
      "stateMutability": "nonpayable",
      "type": "function"
    },
    {
      "inputs": [
        {
          "internalType": "address",
          "name": "to",
          "type": "address"
        }
      ],
      "name": "safeMint",
      "outputs": [],
      "stateMutability": "nonpayable",
      "type": "function"
    },
    {
      "inputs": [
        {
          "internalType": "uint256",
          "name": "tokenId",
          "type": "uint256"
        }
      ],
      "name": "purchaseNFT",
      "outputs": [],
      "stateMutability": "payable",
      "type": "function"
    }
  ],
  "bytecode": "0x60806040523480156200001157600080fd5b5060405162003e5038038062003e508339818101604052810190620000379190620002dc565b838381600090805190602001906200005192919062000197565b5080600190805190602001906200006a92919062000197565b5050506200009f6200008a620000c9640100000000026401000000009004565b620000d1640100000000026401000000009004565b81600b9080519060200190620000b792919062000197565b5080600c819055505050505062000553565b600033905090565b6000600a60009054906101000a900473ffffffffffffffffffffffffffffffffffffffff16905081600a60006101000a81548173ffffffffffffffffffffffffffffffffffffffff021916908373ffffffffffffffffffffffffffffffffffffffff1602179055508173ffffffffffffffffffffffffffffffffffffffff168173ffffffffffffffffffffffffffffffffffffffff167f8be0079c531659141344cd1fd0a4f28419497f9722a3daafe3b4186f6b6457e060405160405180910390a35050565b828054620001a5906200044a565b90600052602060002090601f016020900481019282620001c9576000855562000215565b82601f10620001e457805160ff191683800117855562000215565b8280016001018555821562000215579182015b8281111562000214578251825591602001919060010190620001f7565b5b50905062000224919062000228565b5090565b5b808211156200024357600081600090555060010162000229565b5090565b60006200025e6200025884620003d4565b620003ab565b9050828152602081018484840111156200027d576200027c62000519565b5b6200028a84828562000414565b509392505050565b600082601f830112620002aa57620002a962000514565b5b8151620002bc84826020860162000247565b91505092915050565b600081519050620002d68162000539565b92915050565b60008060008060808587031215620002f957620002f862000523565b5b600085015167ffffffffffffffff8111156200031a57620003196200051e565b5b620003288782880162000292565b945050602085015167ffffffffffffffff8111156200034c576200034b6200051e565b5b6200035a8782880162000292565b935050604085015167ffffffffffffffff8111156200037e576200037d6200051e565b5b6200038c8782880162000292565b92505060606200039f87828801620002c5565b91505092959194509250565b6000620003b7620003ca565b9050620003c5828262000480565b919050565b6000604051905090565b600067ffffffffffffffff821115620003f257620003f1620004e5565b5b620003fd8262000528565b9050602081019050919050565b6000819050919050565b60005b838110156200043457808201518184015260208101905062000417565b8381111562000444576000848401525b50505050565b600060028204905060018216806200046357607f821691505b602082108114156200047a5762000479620004b6565b5b50919050565b6200048b8262000528565b810181811067ffffffffffffffff82111715620004ad57620004ac620004e5565b5b80604052505050565b7f4e487b7100000000000000000000000000000000000000000000000000000000600052602260045260246000fd5b7f4e487b7100000000000000000000000000000000000000000000000000000000600052604160045260246000fd5b600080fd5b600080fd5b600080fd5b600080fd5b6000601f19601f8301169050919050565b62000544816200040a565b81146200055057600080fd5b50565b6138ed80620005636000396000f3fe608060405260043610610168576000357c0100000000000000000000000000000000000000000000000000000000900480636352211e116100d3578063a035b1fe1161008c578063a035b1fe146104b0578063a22cb465146104db578063b88d4fde14610504578063c87b56dd1461052d578063e985e9c51461056a578063f2fde38b146105a757610168565b80636352211e146103a057806370a08231146103dd578063715018a61461041a5780638da5cb5b1461043157806391b7f5ed1461045c57806395d89b411461048557610168565b806323b872dd1161012557806323b872dd146102825780632f745c59146102ab57806340d097c3146102e857806342842e0e146103115780634f6ccce71461033a57806355f804b31461037757610168565b806301ffc9a71461016d57806306fdde03146101aa578063081812fc146101d5578063095ea7b314610212578063150bde031461023b57806318160ddd14610257575b600080fd5b34801561017957600080fd5b50610194600480360381019061018f9190612886565b6105d0565b6040516101a19190612d4a565b60405180910390f35b3480156101b657600080fd5b506101bf61064a565b6040516101cc9190612d65565b60405180910390f35b3480156101e157600080fd5b506101fc60048036038101906101f79190612929565b6106dc565b6040516102099190612ce3565b60405180910390f35b34801561021e57600080fd5b5061023960048036038101906102349190612846565b610722565b005b61025560048036038101906102509190612929565b61083a565b005b34801561026357600080fd5b5061026c61099b565b6040516102799190612fe7565b60405180910390f35b34801561028e57600080fd5b506102a960048036038101906102a49190612730565b6109a8565b005b3480156102b757600080fd5b506102d260048036038101906102cd9190612846565b610a08565b6040516102df9190612fe7565b60405180910390f35b3480156102f457600080fd5b5061030f600480360381019061030a91906126c3565b610aad565b005b34801561031d57600080fd5b5061033860048036038101906103339190612730565b610adb565b005b34801561034657600080fd5b50610361600480360381019061035c9190612929565b610afb565b60405161036e9190612fe7565b60405180910390f35b34801561038357600080fd5b5061039e600480360381019061039991906128e0565b610b6c565b005b3480156103ac57600080fd5b506103c760048036038101906103c29190612929565b610b8e565b6040516103d49190612ce3565b60405180910390f35b3480156103e957600080fd5b5061040460048036038101906103ff91906126c3565b610c15565b6040516104119190612fe7565b60405180910390f35b34801561042657600080fd5b5061042f610ccd565b005b34801561043d57600080fd5b50610446610ce1565b6040516104539190612ce3565b60405180910390f35b34801561046857600080fd5b50610483600480360381019061047e9190612929565b610d0b565b005b34801561049157600080fd5b5061049a610d1d565b6040516104a79190612d65565b60405180910390f35b3480156104bc57600080fd5b506104c5610daf565b6040516104d29190612fe7565b60405180910390f35b3480156104e757600080fd5b5061050260048036038101906104fd9190612806565b610db5565b005b34801561051057600080fd5b5061052b60048036038101906105269190612783565b610dcb565b005b34801561053957600080fd5b50610554600480360381019061054f9190612929565b610e2d565b6040516105619190612d65565b60405180910390f35b34801561057657600080fd5b50610591600480360381019061058c91906126f0565b610e95565b60405161059e9190612d4a565b60405180910390f35b3480156105b357600080fd5b506105ce60048036038101906105c991906126c3565b610f29565b005b60007f780e9d63000000000000000000000000000000000000000000000000000000007bffffffffffffffffffffffffffffffffffffffffffffffffffffffff1916827bffffffffffffffffffffffffffffffffffffffffffffffffffffffff19161480610643575061064282610fad565b5b9050919050565b6060600080546106599061320c565b80601f01602080910402602001604051908101604052809291908181526020018280546106859061320c565b80156106d25780601f106106a7576101008083540402835291602001916106d2565b820191906000526020600020905b8154815290600101906020018083116106b557829003601f168201915b5050505050905090565b60006106e78261108f565b6004600083815260200190815260200160002060009054906101000a900473ffffffffffffffffffffffffffffffffffffffff169050919050565b600061072d82610b8e565b90508073ffffffffffffffffffffffffffffffffffffffff168373ffffffffffffffffffffffffffffffffffffffff16141561079e576040517f08c379a000000000000000000000000000000000000000000000000000000000815260040161079590612f67565b60405180910390fd5b8073ffffffffffffffffffffffffffffffffffffffff166107bd6110da565b73ffffffffffffffffffffffffffffffffffffffff1614806107ec57506107eb816107e66110da565b610e95565b5b61082b576040517f08c379a000000000000000000000000000000000000000000000000000000000815260040161082290612f87565b60405180910390fd5b61083583836110e2565b505050565b600c5434101561087f576040517f08c379a000000000000000000000000000000000000000000000000000000000815260040161087690612ea7565b60405180910390fd5b600061088a82610b8e565b9050600073ffffffffffffffffffffffffffffffffffffffff168173ffffffffffffffffffffffffffffffffffffffff1614156108fc576040517f08c379a00000000000000000000000000000000000000000000000000000000081526004016108f390612e87565b60405180910390fd5b610906818361119b565b610945576040517f08c379a000000000000000000000000000000000000000000000000000000000815260040161093c90612ee7565b60405180910390fd5b610950813384610adb565b8073ffffffffffffffffffffffffffffffffffffffff166108fc349081150290604051600060405180830381858888f19350505050158015610996573d6000803e3d6000fd5b505050565b6000600880549050905090565b6109b96109b36110da565b8261119b565b6109f8576040517f08c379a00000000000000000000000000000000000000000000000000000000081526004016109ef90612d87565b60405180910390fd5b610a03838383611230565b505050565b6000610a1383610c15565b8210610a54576040517f08c379a0000000000000000000000000000000000000000000000000000000008152600401610a4b90612da7565b60405180910390fd5b600660008473ffffffffffffffffffffffffffffffffffffffff1673ffffffffffffffffffffffffffffffffffffffff168152602001908152602001600020600083815260200190815260200160002054905092915050565b610ab561152a565b60006001610ac161099b565b610acb91906130cc565b9050610ad782826115a8565b5050565b610af683838360405180602001604052806000815250610dcb565b505050565b6000610b0561099b565b8210610b46576040517f08c379a0000000000000000000000000000000000000000000000000000000008152600401610b3d90612fa7565b60405180910390fd5b60088281548110610b5a57610b5961332b565b5b90600052602060002001549050919050565b610b7461152a565b80600b9080519060200190610b8a9291906124d7565b5050565b600080610b9a836115c6565b9050600073ffffffffffffffffffffffffffffffffffffffff168173ffffffffffffffffffffffffffffffffffffffff161415610c0c576040517f08c379a0000000000000000000000000000000000000000000000000000000008152600401610c0390612f47565b60405180910390fd5b80915050919050565b60008073ffffffffffffffffffffffffffffffffffffffff168273ffffffffffffffffffffffffffffffffffffffff161415610c86576040517f08c379a0000000000000000000000000000000000000000000000000000000008152600401610c7d90612ec7565b60405180910390fd5b600360008373ffffffffffffffffffffffffffffffffffffffff1673ffffffffffffffffffffffffffffffffffffffff168152602001908152602001600020549050919050565b610cd561152a565b610cdf6000611603565b565b6000600a60009054906101000a900473ffffffffffffffffffffffffffffffffffffffff16905090565b610d1361152a565b80600c8190555050565b606060018054610d2c9061320c565b80601f0160208091040260200160405190810160405280929190818152602001828054610d589061320c565b8015610da55780601f10610d7a57610100808354040283529160200191610da5565b820191906000526020600020905b815481529060010190602001808311610d8857829003601f168201915b5050505050905090565b600c5481565b610dc7610dc06110da565b83836116c9565b5050565b610ddc610dd66110da565b8361119b565b610e1b576040517f08c379a0000000000000000000000000000000000000000000000000000000008152600401610e1290612d87565b60405180910390fd5b610e2784848484611836565b50505050565b6060610e388261108f565b6000610e42611892565b90506000815111610e625760405180602001604052806000815250610e8d565b80610e6c84611924565b604051602001610e7d929190612cbf565b6040516020818303038152906040525b915050919050565b6000600560008473ffffffffffffffffffffffffffffffffffffffff1673ffffffffffffffffffffffffffffffffffffffff16815260200190815260200160002060008373ffffffffffffffffffffffffffffffffffffffff1673ffffffffffffffffffffffffffffffffffffffff16815260200190815260200160002060009054906101000a900460ff16905092915050565b610f3161152a565b600073ffffffffffffffffffffffffffffffffffffffff168173ffffffffffffffffffffffffffffffffffffffff161415610fa1576040517f08c379a0000000000000000000000000000000000000000000000000000000008152600401610f9890612de7565b60405180910390fd5b610faa81611603565b50565b60007f80ac58cd000000000000000000000000000000000000000000000000000000007bffffffffffffffffffffffffffffffffffffffffffffffffffffffff1916827bffffffffffffffffffffffffffffffffffffffffffffffffffffffff1916148061107857507f5b5e139f000000000000000000000000000000000000000000000000000000007bffffffffffffffffffffffffffffffffffffffffffffffffffffffff1916827bffffffffffffffffffffffffffffffffffffffffffffffffffffffff1916145b806110885750611087826119fc565b5b9050919050565b61109881611a66565b6110d7576040517f08c379a00000000000000000000000000000000000000000000000000000000081526004016110ce90612f47565b60405180910390fd5b50565b600033905090565b816004600083815260200190815260200160002060006101000a81548173ffffffffffffffffffffffffffffffffffffffff021916908373ffffffffffffffffffffffffffffffffffffffff160217905550808273ffffffffffffffffffffffffffffffffffffffff1661115583610b8e565b73ffffffffffffffffffffffffffffffffffffffff167f8c5be1e5ebec7d5bd14f71427d1e84f3dd0314c0f7b2291e5b200ac8c7c3b92560405160405180910390a45050565b6000806111a783610b8e565b90508073ffffffffffffffffffffffffffffffffffffffff168473ffffffffffffffffffffffffffffffffffffffff1614806111e957506111e88185610e95565b5b8061122757508373ffffffffffffffffffffffffffffffffffffffff1661120f846106dc565b73ffffffffffffffffffffffffffffffffffffffff16145b91505092915050565b8273ffffffffffffffffffffffffffffffffffffffff1661125082610b8e565b73ffffffffffffffffffffffffffffffffffffffff16146112a6576040517f08c379a000000000000000000000000000000000000000000000000000000000815260040161129d90612e07565b60405180910390fd5b600073ffffffffffffffffffffffffffffffffffffffff168273ffffffffffffffffffffffffffffffffffffffff161415611316576040517f08c379a000000000000000000000000000000000000000000000000000000000815260040161130d90612e47565b60405180910390fd5b6113238383836001611aa7565b8273ffffffffffffffffffffffffffffffffffffffff1661134382610b8e565b73ffffffffffffffffffffffffffffffffffffffff1614611399576040517f08c379a000000000000000000000000000000000000000000000000000000000815260040161139090612e07565b60405180910390fd5b6004600082815260200190815260200160002060006101000a81549073ffffffffffffffffffffffffffffffffffffffff02191690556001600360008573ffffffffffffffffffffffffffffffffffffffff1673ffffffffffffffffffffffffffffffffffffffff168152602001908152602001600020600082825403925050819055506001600360008473ffffffffffffffffffffffffffffffffffffffff1673ffffffffffffffffffffffffffffffffffffffff16815260200190815260200160002060008282540192505081905550816002600083815260200190815260200160002060006101000a81548173ffffffffffffffffffffffffffffffffffffffff021916908373ffffffffffffffffffffffffffffffffffffffff160217905550808273ffffffffffffffffffffffffffffffffffffffff168473ffffffffffffffffffffffffffffffffffffffff167fddf252ad1be2c89b69c2b068fc378daa952ba7f163c4a11628f55a4df523b3ef60405160405180910390a46115258383836001611c07565b505050565b6115326110da565b73ffffffffffffffffffffffffffffffffffffffff16611550610ce1565b73ffffffffffffffffffffffffffffffffffffffff16146115a6576040517f08c379a000000000000000000000000000000000000000000000000000000000815260040161159d90612f27565b60405180910390fd5b565b6115c2828260405180602001604052806000815250611c0d565b5050565b60006002600083815260200190815260200160002060009054906101000a900473ffffffffffffffffffffffffffffffffffffffff169050919050565b6000600a60009054906101000a900473ffffffffffffffffffffffffffffffffffffffff16905081600a60006101000a81548173ffffffffffffffffffffffffffffffffffffffff021916908373ffffffffffffffffffffffffffffffffffffffff1602179055508173ffffffffffffffffffffffffffffffffffffffff168173ffffffffffffffffffffffffffffffffffffffff167f8be0079c531659141344cd1fd0a4f28419497f9722a3daafe3b4186f6b6457e060405160405180910390a35050565b8173ffffffffffffffffffffffffffffffffffffffff168373ffffffffffffffffffffffffffffffffffffffff161415611738576040517f08c379a000000000000000000000000000000000000000000000000000000000815260040161172f90612e67565b60405180910390fd5b80600560008573ffffffffffffffffffffffffffffffffffffffff1673ffffffffffffffffffffffffffffffffffffffff16815260200190815260200160002060008473ffffffffffffffffffffffffffffffffffffffff1673ffffffffffffffffffffffffffffffffffffffff16815260200190815260200160002060006101000a81548160ff0219169083151502179055508173ffffffffffffffffffffffffffffffffffffffff168373ffffffffffffffffffffffffffffffffffffffff167f17307eab39ab6107e8899845ad3d59bd9653f200f220920489ca2b5937696c31836040516118299190612d4a565b60405180910390a3505050565b611841848484611230565b61184d84848484611c68565b61188c576040517f08c379a000000000000000000000000000000000000000000000000000000000815260040161188390612dc7565b60405180910390fd5b50505050565b6060600b80546118a19061320c565b80601f01602080910402602001604051908101604052809291908181526020018280546118cd9061320c565b801561191a5780601f106118ef5761010080835404028352916020019161191a565b820191906000526020600020905b8154815290600101906020018083116118fd57829003601f168201915b5050505050905090565b60606000600161193384611e37565b01905060008167ffffffffffffffff8111156119525761195161335a565b5b6040519080825280601f01601f1916602001820160405280156119845781602001600182028036833780820191505090505b509050600082602001820190505b6001156119f1578080600190039150507f3031323334353637383961626364656600000000000000000000000000000000600a86061a8153600a85816119db576119da61329e565b5b04945060008514156119ec576119f1565b611992565b819350505050919050565b60007f01ffc9a7000000000000000000000000000000000000000000000000000000007bffffffffffffffffffffffffffffffffffffffffffffffffffffffff1916827bffffffffffffffffffffffffffffffffffffffffffffffffffffffff1916149050919050565b60008073ffffffffffffffffffffffffffffffffffffffff16611a88836115c6565b73ffffffffffffffffffffffffffffffffffffffff1614159050919050565b611ab384848484611f8a565b6001811115611af7576040517f08c379a0000000000000000000000000000000000000000000000000000000008152600401611aee90612fc7565b60405180910390fd5b6000829050600073ffffffffffffffffffffffffffffffffffffffff168573ffffffffffffffffffffffffffffffffffffffff161415611b3f57611b3a81611f90565b611b7e565b8373ffffffffffffffffffffffffffffffffffffffff168573ffffffffffffffffffffffffffffffffffffffff1614611b7d57611b7c8582611fd9565b5b5b600073ffffffffffffffffffffffffffffffffffffffff168473ffffffffffffffffffffffffffffffffffffffff161415611bc157611bbc81612146565b611c00565b8473ffffffffffffffffffffffffffffffffffffffff168473ffffffffffffffffffffffffffffffffffffffff1614611bff57611bfe8482612217565b5b5b5050505050565b50505050565b611c178383612296565b611c246000848484611c68565b611c63576040517f08c379a0000000000000000000000000000000000000000000000000000000008152600401611c5a90612dc7565b60405180910390fd5b505050565b6000611c898473ffffffffffffffffffffffffffffffffffffffff166124b4565b15611e2a578373ffffffffffffffffffffffffffffffffffffffff1663150b7a02611cb26110da565b8786866040518563ffffffff167c0100000000000000000000000000000000000000000000000000000000028152600401611cf09493929190612cfe565b602060405180830381600087803b158015611d0a57600080fd5b505af1925050508015611d3b57506040513d601f19601f82011682018060405250810190611d3891906128b3565b60015b611dbe573d8060008114611d6b576040519150601f19603f3d011682016040523d82523d6000602084013e611d70565b606091505b50600081511415611db6576040517f08c379a0000000000000000000000000000000000000000000000000000000008152600401611dad90612dc7565b60405180910390fd5b805181602001fd5b63150b7a027c0100000000000000000000000000000000000000000000000000000000027bffffffffffffffffffffffffffffffffffffffffffffffffffffffff1916817bffffffffffffffffffffffffffffffffffffffffffffffffffffffff191614915050611e2f565b600190505b949350505050565b600080600090507a184f03e93ff9f4daa797ed6e38ed64bf6a1f0100000000000000008310611e95577a184f03e93ff9f4daa797ed6e38ed64bf6a1f0100000000000000008381611e8b57611e8a61329e565b5b0492506040810190505b6d04ee2d6d415b85acef81000000008310611ed2576d04ee2d6d415b85acef81000000008381611ec857611ec761329e565b5b0492506020810190505b662386f26fc100008310611f0157662386f26fc100008381611ef757611ef661329e565b5b0492506010810190505b6305f5e1008310611f2a576305f5e1008381611f2057611f1f61329e565b5b0492506008810190505b6127108310611f4f576127108381611f4557611f4461329e565b5b0492506004810190505b60648310611f725760648381611f6857611f6761329e565b5b0492506002810190505b600a8310611f81576001810190505b80915050919050565b50505050565b6008805490506009600083815260200190815260200160002081905550600881908060018154018082558091505060019003906000526020600020016000909190919091505550565b60006001611fe684610c15565b611ff09190613122565b90506000600760008481526020019081526020016000205490508181146120d5576000600660008673ffffffffffffffffffffffffffffffffffffffff1673ffffffffffffffffffffffffffffffffffffffff168152602001908152602001600020600084815260200190815260200160002054905080600660008773ffffffffffffffffffffffffffffffffffffffff1673ffffffffffffffffffffffffffffffffffffffff168152602001908152602001600020600084815260200190815260200160002081905550816007600083815260200190815260200160002081905550505b6007600084815260200190815260200160002060009055600660008573ffffffffffffffffffffffffffffffffffffffff1673ffffffffffffffffffffffffffffffffffffffff16815260200190815260200160002060008381526020019081526020016000206000905550505050565b6000600160088054905061215a9190613122565b905060006009600084815260200190815260200160002054905060006008838154811061218a5761218961332b565b5b9060005260206000200154905080600883815481106121ac576121ab61332b565b5b9060005260206000200181905550816009600083815260200190815260200160002081905550600960008581526020019081526020016000206000905560088054806121fb576121fa6132fc565b5b6001900381819060005260206000200160009055905550505050565b600061222283610c15565b905081600660008573ffffffffffffffffffffffffffffffffffffffff1673ffffffffffffffffffffffffffffffffffffffff168152602001908152602001600020600083815260200190815260200160002081905550806007600084815260200190815260200160002081905550505050565b600073ffffffffffffffffffffffffffffffffffffffff168273ffffffffffffffffffffffffffffffffffffffff161415612306576040517f08c379a00000000000000000000000000000000000000000000000000000000081526004016122fd90612f07565b60405180910390fd5b61230f81611a66565b1561234f576040517f08c379a000000000000000000000000000000000000000000000000000000000815260040161234690612e27565b60405180910390fd5b61235d600083836001611aa7565b61236681611a66565b156123a6576040517f08c379a000000000000000000000000000000000000000000000000000000000815260040161239d90612e27565b60405180910390fd5b6001600360008473ffffffffffffffffffffffffffffffffffffffff1673ffffffffffffffffffffffffffffffffffffffff16815260200190815260200160002060008282540192505081905550816002600083815260200190815260200160002060006101000a81548173ffffffffffffffffffffffffffffffffffffffff021916908373ffffffffffffffffffffffffffffffffffffffff160217905550808273ffffffffffffffffffffffffffffffffffffffff16600073ffffffffffffffffffffffffffffffffffffffff167fddf252ad1be2c89b69c2b068fc378daa952ba7f163c4a11628f55a4df523b3ef60405160405180910390a46124b0600083836001611c07565b5050565b6000808273ffffffffffffffffffffffffffffffffffffffff163b119050919050565b8280546124e39061320c565b90600052602060002090601f016020900481019282612505576000855561254c565b82601f1061251e57805160ff191683800117855561254c565b8280016001018555821561254c579182015b8281111561254b578251825591602001919060010190612530565b5b509050612559919061255d565b5090565b5b8082111561257657600081600090555060010161255e565b5090565b600061258d61258884613027565b613002565b9050828152602081018484840111156125a9576125a861338e565b5b6125b48482856131ca565b509392505050565b60006125cf6125ca84613058565b613002565b9050828152602081018484840111156125eb576125ea61338e565b5b6125f68482856131ca565b509392505050565b60008135905061260d8161385b565b92915050565b60008135905061262281613872565b92915050565b60008135905061263781613889565b92915050565b60008151905061264c81613889565b92915050565b600082601f83011261266757612666613389565b5b813561267784826020860161257a565b91505092915050565b600082601f83011261269557612694613389565b5b81356126a58482602086016125bc565b91505092915050565b6000813590506126bd816138a0565b92915050565b6000602082840312156126d9576126d8613398565b5b60006126e7848285016125fe565b91505092915050565b6000806040838503121561270757612706613398565b5b6000612715858286016125fe565b9250506020612726858286016125fe565b9150509250929050565b60008060006060848603121561274957612748613398565b5b6000612757868287016125fe565b9350506020612768868287016125fe565b9250506040612779868287016126ae565b9150509250925092565b6000806000806080858703121561279d5761279c613398565b5b60006127ab878288016125fe565b94505060206127bc878288016125fe565b93505060406127cd878288016126ae565b925050606085013567ffffffffffffffff8111156127ee576127ed613393565b5b6127fa87828801612652565b91505092959194509250565b6000806040838503121561281d5761281c613398565b5b600061282b858286016125fe565b925050602061283c85828601612613565b9150509250929050565b6000806040838503121561285d5761285c613398565b5b600061286b858286016125fe565b925050602061287c858286016126ae565b9150509250929050565b60006020828403121561289c5761289b613398565b5b60006128aa84828501612628565b91505092915050565b6000602082840312156128c9576128c8613398565b5b60006128d78482850161263d565b91505092915050565b6000602082840312156128f6576128f5613398565b5b600082013567ffffffffffffffff81111561291457612913613393565b5b61292084828501612680565b91505092915050565b60006020828403121561293f5761293e613398565b5b600061294d848285016126ae565b91505092915050565b61295f81613156565b82525050565b61296e81613168565b82525050565b600061297f82613089565b612989818561309f565b93506129998185602086016131d9565b6129a28161339d565b840191505092915050565b60006129b882613094565b6129c281856130b0565b93506129d28185602086016131d9565b6129db8161339d565b840191505092915050565b60006129f182613094565b6129fb81856130c1565b9350612a0b8185602086016131d9565b80840191505092915050565b6000612a24602d836130b0565b9150612a2f826133ae565b604082019050919050565b6000612a47602b836130b0565b9150612a52826133fd565b604082019050919050565b6000612a6a6032836130b0565b9150612a758261344c565b604082019050919050565b6000612a8d6026836130b0565b9150612a988261349b565b604082019050919050565b6000612ab06025836130b0565b9150612abb826134ea565b604082019050919050565b6000612ad3601c836130b0565b9150612ade82613539565b602082019050919050565b6000612af66024836130b0565b9150612b0182613562565b604082019050919050565b6000612b196019836130b0565b9150612b24826135b1565b602082019050919050565b6000612b3c600d836130b0565b9150612b47826135da565b602082019050919050565b6000612b5f6012836130b0565b9150612b6a82613603565b602082019050919050565b6000612b826029836130b0565b9150612b8d8261362c565b604082019050919050565b6000612ba5600c836130b0565b9150612bb08261367b565b602082019050919050565b6000612bc86020836130b0565b9150612bd3826136a4565b602082019050919050565b6000612beb6020836130b0565b9150612bf6826136cd565b602082019050919050565b6000612c0e6018836130b0565b9150612c19826136f6565b602082019050919050565b6000612c316021836130b0565b9150612c3c8261371f565b604082019050919050565b6000612c54603d836130b0565b9150612c5f8261376e565b604082019050919050565b6000612c77602c836130b0565b9150612c82826137bd565b604082019050919050565b6000612c9a6035836130b0565b9150612ca58261380c565b604082019050919050565b612cb9816131c0565b82525050565b6000612ccb82856129e6565b9150612cd782846129e6565b91508190509392505050565b6000602082019050612cf86000830184612956565b92915050565b6000608082019050612d136000830187612956565b612d206020830186612956565b612d2d6040830185612cb0565b8181036060830152612d3f8184612974565b905095945050505050565b6000602082019050612d5f6000830184612965565b92915050565b60006020820190508181036000830152612d7f81846129ad565b905092915050565b60006020820190508181036000830152612da081612a17565b9050919050565b60006020820190508181036000830152612dc081612a3a565b9050919050565b60006020820190508181036000830152612de081612a5d565b9050919050565b60006020820190508181036000830152612e0081612a80565b9050919050565b60006020820190508181036000830152612e2081612aa3565b9050919050565b60006020820190508181036000830152612e4081612ac6565b9050919050565b60006020820190508181036000830152612e6081612ae9565b9050919050565b60006020820190508181036000830152612e8081612b0c565b9050919050565b60006020820190508181036000830152612ea081612b2f565b9050919050565b60006020820190508181036000830152612ec081612b52565b9050919050565b60006020820190508181036000830152612ee081612b75565b9050919050565b60006020820190508181036000830152612f0081612b98565b9050919050565b60006020820190508181036000830152612f2081612bbb565b9050919050565b60006020820190508181036000830152612f4081612bde565b9050919050565b60006020820190508181036000830152612f6081612c01565b9050919050565b60006020820190508181036000830152612f8081612c24565b9050919050565b60006020820190508181036000830152612fa081612c47565b9050919050565b60006020820190508181036000830152612fc081612c6a565b9050919050565b60006020820190508181036000830152612fe081612c8d565b9050919050565b6000602082019050612ffc6000830184612cb0565b92915050565b600061300c61301d565b9050613018828261323e565b919050565b6000604051905090565b600067ffffffffffffffff8211156130425761304161335a565b5b61304b8261339d565b9050602081019050919050565b600067ffffffffffffffff8211156130735761307261335a565b5b61307c8261339d565b9050602081019050919050565b600081519050919050565b600081519050919050565b600082825260208201905092915050565b600082825260208201905092915050565b600081905092915050565b60006130d7826131c0565b91506130e2836131c0565b9250827fffffffffffffffffffffffffffffffffffffffffffffffffffffffffffffffff038211156131175761311661326f565b5b828201905092915050565b600061312d826131c0565b9150613138836131c0565b92508282101561314b5761314a61326f565b5b828203905092915050565b6000613161826131a0565b9050919050565b60008115159050919050565b60007fffffffff0000000000000000000000000000000000000000000000000000000082169050919050565b600073ffffffffffffffffffffffffffffffffffffffff82169050919050565b6000819050919050565b82818337600083830152505050565b60005b838110156131f75780820151818401526020810190506131dc565b83811115613206576000848401525b50505050565b6000600282049050600182168061322457607f821691505b60208210811415613238576132376132cd565b5b50919050565b6132478261339d565b810181811067ffffffffffffffff821117156132665761326561335a565b5b80604052505050565b7f4e487b7100000000000000000000000000000000000000000000000000000000600052601160045260246000fd5b7f4e487b7100000000000000000000000000000000000000000000000000000000600052601260045260246000fd5b7f4e487b7100000000000000000000000000000000000000000000000000000000600052602260045260246000fd5b7f4e487b7100000000000000000000000000000000000000000000000000000000600052603160045260246000fd5b7f4e487b7100000000000000000000000000000000000000000000000000000000600052603260045260246000fd5b7f4e487b7100000000000000000000000000000000000000000000000000000000600052604160045260246000fd5b600080fd5b600080fd5b600080fd5b600080fd5b6000601f19601f8301169050919050565b7f4552433732313a2063616c6c6572206973206e6f7420746f6b656e206f776e6560008201527f72206f7220617070726f76656400000000000000000000000000000000000000602082015250565b7f455243373231456e756d657261626c653a206f776e657220696e646578206f7560008201527f74206f6620626f756e6473000000000000000000000000000000000000000000602082015250565b7f4552433732313a207472616e7366657220746f206e6f6e20455243373231526560008201527f63656976657220696d706c656d656e7465720000000000000000000000000000602082015250565b7f4f776e61626c653a206e6577206f776e657220697320746865207a65726f206160008201527f6464726573730000000000000000000000000000000000000000000000000000602082015250565b7f4552433732313a207472616e736665722066726f6d20696e636f72726563742060008201527f6f776e6572000000000000000000000000000000000000000000000000000000602082015250565b7f4552433732313a20746f6b656e20616c7265616479206d696e74656400000000600082015250565b7f4552433732313a207472616e7366657220746f20746865207a65726f2061646460008201527f7265737300000000000000000000000000000000000000000000000000000000602082015250565b7f4552433732313a20617070726f766520746f2063616c6c657200000000000000600082015250565b7f496e76616c696420746f6b656e00000000000000000000000000000000000000600082015250565b7f496e73756666696369656e742066756e64730000000000000000000000000000600082015250565b7f4552433732313a2061646472657373207a65726f206973206e6f74206120766160008201527f6c6964206f776e65720000000000000000000000000000000000000000000000602082015250565b7f4e6f7420617070726f7665640000000000000000000000000000000000000000600082015250565b7f4552433732313a206d696e7420746f20746865207a65726f2061646472657373600082015250565b7f4f776e61626c653a2063616c6c6572206973206e6f7420746865206f776e6572600082015250565b7f4552433732313a20696e76616c696420746f6b656e2049440000000000000000600082015250565b7f4552433732313a20617070726f76616c20746f2063757272656e74206f776e6560008201527f7200000000000000000000000000000000000000000000000000000000000000602082015250565b7f4552433732313a20617070726f76652063616c6c6572206973206e6f7420746f60008201527f6b656e206f776e6572206f7220617070726f76656420666f7220616c6c000000602082015250565b7f455243373231456e756d657261626c653a20676c6f62616c20696e646578206f60008201527f7574206f6620626f756e64730000000000000000000000000000000000000000602082015250565b7f455243373231456e756d657261626c653a20636f6e736563757469766520747260008201527f616e7366657273206e6f7420737570706f727465640000000000000000000000602082015250565b61386481613156565b811461386f57600080fd5b50565b61387b81613168565b811461388657600080fd5b50565b61389281613174565b811461389d57600080fd5b50565b6138a9816131c0565b81146138b457600080fd5b5056fea2646970667358221220e5ce2431ef0aa313d2135c2d9a848d796399c9eaea21b3bd9cadbefccddb87a864736f6c63430008060033",
  "immutableReferences": {},
  "source": "// SPDX-License-Identifier: MIT\r\npragma solidity ^0.8.6;\r\n\r\nimport \"@openzeppelin/contracts/token/ERC721/extensions/ERC721Enumerable.sol\";\r\nimport \"@openzeppelin/contracts/access/Ownable.sol\";\r\n\r\ncontract NFTContract is ERC721Enumerable, Ownable {\r\n    using Strings for uint256;\r\n\r\n    string private _baseTokenURI;\r\n    uint256 public price;  // Price in wei for purchasing the NFT\r\n\r\n    constructor(string memory _name, string memory _symbol, string memory baseTokenURI, uint256 _price) ERC721(_name, _symbol) {\r\n        _baseTokenURI = baseTokenURI;\r\n        price = _price;\r\n    }\r\n\r\n    function _baseURI() internal view override returns (string memory) {\r\n        return _baseTokenURI;\r\n    }\r\n\r\n    function setBaseURI(string memory baseTokenURI) external onlyOwner {\r\n        _baseTokenURI = baseTokenURI;\r\n    }\r\n\r\n    function setPrice(uint256 _price) external onlyOwner {\r\n        price = _price;\r\n    }\r\n\r\n    function safeMint(address to) external onlyOwner {\r\n        uint256 tokenId = totalSupply() + 1;\r\n        _safeMint(to, tokenId);\r\n    }\r\n\r\n    function purchaseNFT(uint256 tokenId) external payable {\r\n        require(msg.value >= price, \"Insufficient funds\");\r\n\r\n        address owner = ownerOf(tokenId);\r\n        require(owner != address(0), \"Invalid token\");\r\n        require(_isApprovedOrOwner(owner, tokenId), \"Not approved\");\r\n\r\n        // Transfer the NFT to the buyer\r\n        safeTransferFrom(owner, msg.sender, tokenId);\r\n\r\n        // Transfer the funds to the seller (contract owner)\r\n        payable(owner).transfer(msg.value);\r\n    }\r\n}",
  "sourcePath": "C:\\Users\\Abraham\\Desktop\\zencon\\contracts\\NFT.sol",
  "compiler": {
    "name": "solc",
    "version": "0.8.6+commit.11564f7e.Emscripten.clang"
  },
  "schemaVersion": "3.4.16",
  "updatedAt": "2023-09-20T07:36:54.723Z",
  "devdoc": {
    "kind": "dev",
    "methods": {
      "approve(address,uint256)": {
        "details": "See {IERC721-approve}."
      },
      "balanceOf(address)": {
        "details": "See {IERC721-balanceOf}."
      },
      "getApproved(uint256)": {
        "details": "See {IERC721-getApproved}."
      },
      "isApprovedForAll(address,address)": {
        "details": "See {IERC721-isApprovedForAll}."
      },
      "name()": {
        "details": "See {IERC721Metadata-name}."
      },
      "owner()": {
        "details": "Returns the address of the current owner."
      },
      "ownerOf(uint256)": {
        "details": "See {IERC721-ownerOf}."
      },
      "renounceOwnership()": {
        "details": "Leaves the contract without owner. It will not be possible to call `onlyOwner` functions. Can only be called by the current owner. NOTE: Renouncing ownership will leave the contract without an owner, thereby disabling any functionality that is only available to the owner."
      },
      "safeTransferFrom(address,address,uint256)": {
        "details": "See {IERC721-safeTransferFrom}."
      },
      "safeTransferFrom(address,address,uint256,bytes)": {
        "details": "See {IERC721-safeTransferFrom}."
      },
      "setApprovalForAll(address,bool)": {
        "details": "See {IERC721-setApprovalForAll}."
      },
      "supportsInterface(bytes4)": {
        "details": "See {IERC165-supportsInterface}."
      },
      "symbol()": {
        "details": "See {IERC721Metadata-symbol}."
      },
      "tokenByIndex(uint256)": {
        "details": "See {IERC721Enumerable-tokenByIndex}."
      },
      "tokenOfOwnerByIndex(address,uint256)": {
        "details": "See {IERC721Enumerable-tokenOfOwnerByIndex}."
      },
      "tokenURI(uint256)": {
        "details": "See {IERC721Metadata-tokenURI}."
      },
      "totalSupply()": {
        "details": "See {IERC721Enumerable-totalSupply}."
      },
      "transferFrom(address,address,uint256)": {
        "details": "See {IERC721-transferFrom}."
      },
      "transferOwnership(address)": {
        "details": "Transfers ownership of the contract to a new account (`newOwner`). Can only be called by the current owner."
      }
    },
    "version": 1
  },
  "userdoc": {
    "kind": "user",
    "methods": {},
    "version": 1
  }
}